{
  "contractName": "BookRental",
  "abi": [
    {
      "inputs": [],
      "stateMutability": "nonpayable",
      "type": "constructor"
    },
    {
      "anonymous": false,
      "inputs": [
        {
          "indexed": true,
          "internalType": "uint256",
          "name": "itemId",
          "type": "uint256"
        },
        {
          "indexed": false,
          "internalType": "string",
          "name": "title",
          "type": "string"
        },
        {
          "indexed": false,
          "internalType": "uint256",
          "name": "price",
          "type": "uint256"
        },
        {
          "indexed": false,
          "internalType": "uint256",
          "name": "deposit",
          "type": "uint256"
        }
      ],
      "name": "BookListed",
      "type": "event"
    },
    {
      "anonymous": false,
      "inputs": [
        {
          "indexed": true,
          "internalType": "uint256",
          "name": "itemId",
          "type": "uint256"
        },
        {
          "indexed": true,
          "internalType": "address",
          "name": "renter",
          "type": "address"
        }
      ],
      "name": "BookRented",
      "type": "event"
    },
    {
      "anonymous": false,
      "inputs": [
        {
          "indexed": true,
          "internalType": "uint256",
          "name": "itemId",
          "type": "uint256"
        },
        {
          "indexed": false,
          "internalType": "uint256",
          "name": "refund",
          "type": "uint256"
        }
      ],
      "name": "BookReturned",
      "type": "event"
    },
    {
      "inputs": [
        {
          "internalType": "uint256",
          "name": "",
          "type": "uint256"
        }
      ],
      "name": "books",
      "outputs": [
        {
          "internalType": "string",
          "name": "title",
          "type": "string"
        },
        {
          "internalType": "uint256",
          "name": "dailyPrice",
          "type": "uint256"
        },
        {
          "internalType": "uint256",
          "name": "deposit",
          "type": "uint256"
        },
        {
          "internalType": "address",
          "name": "owner",
          "type": "address"
        },
        {
          "internalType": "bool",
          "name": "isAvailable",
          "type": "bool"
        }
      ],
      "stateMutability": "view",
      "type": "function",
      "constant": true
    },
    {
      "inputs": [],
      "name": "itemCount",
      "outputs": [
        {
          "internalType": "uint256",
          "name": "",
          "type": "uint256"
        }
      ],
      "stateMutability": "view",
      "type": "function",
      "constant": true
    },
    {
      "inputs": [],
      "name": "owner",
      "outputs": [
        {
          "internalType": "address",
          "name": "",
          "type": "address"
        }
      ],
      "stateMutability": "view",
      "type": "function",
      "constant": true
    },
    {
      "inputs": [
        {
          "internalType": "uint256",
          "name": "",
          "type": "uint256"
        }
      ],
      "name": "rentals",
      "outputs": [
        {
          "internalType": "address",
          "name": "renter",
          "type": "address"
        },
        {
          "internalType": "uint256",
          "name": "rentedAt",
          "type": "uint256"
        }
      ],
      "stateMutability": "view",
      "type": "function",
      "constant": true
    },
    {
      "inputs": [
        {
          "internalType": "string",
          "name": "_title",
          "type": "string"
        },
        {
          "internalType": "uint256",
          "name": "_dailyPrice",
          "type": "uint256"
        },
        {
          "internalType": "uint256",
          "name": "_deposit",
          "type": "uint256"
        }
      ],
      "name": "listItem",
      "outputs": [],
      "stateMutability": "nonpayable",
      "type": "function"
    },
    {
      "inputs": [
        {
          "internalType": "uint256",
          "name": "_itemId",
          "type": "uint256"
        }
      ],
      "name": "rentItem",
      "outputs": [],
      "stateMutability": "payable",
      "type": "function",
      "payable": true
    },
    {
      "inputs": [
        {
          "internalType": "uint256",
          "name": "_itemId",
          "type": "uint256"
        }
      ],
      "name": "returnItem",
      "outputs": [],
      "stateMutability": "nonpayable",
      "type": "function"
    },
    {
      "inputs": [],
      "name": "getBookCount",
      "outputs": [
        {
          "internalType": "uint256",
          "name": "",
          "type": "uint256"
        }
      ],
      "stateMutability": "view",
      "type": "function",
      "constant": true
    }
  ],
  "bytecode": "0x608060405234801561000f575f80fd5b5060015f819055503360015f6101000a81548173ffffffffffffffffffffffffffffffffffffffff021916908373ffffffffffffffffffffffffffffffffffffffff16021790555061171e806100645f395ff3fe60806040526004361061007a575f3560e01c8063af94a1d11161004d578063af94a1d11461013a578063d73e0c8914610177578063d78d3852146101a1578063f1766279146101bd5761007a565b8063223ed1dd1461007e57806368744046146100a65780636bfb0d01146100e65780638da5cb5b14610110575b5f80fd5b348015610089575f80fd5b506100a4600480360381019061009f9190610b07565b6101e5565b005b3480156100b1575f80fd5b506100cc60048036038101906100c79190610b07565b61050d565b6040516100dd959493929190610c24565b60405180910390f35b3480156100f1575f80fd5b506100fa6105f1565b6040516101079190610c7c565b60405180910390f35b34801561011b575f80fd5b506101246105f7565b6040516101319190610c95565b60405180910390f35b348015610145575f80fd5b50610160600480360381019061015b9190610b07565b61061c565b60405161016e929190610cae565b60405180910390f35b348015610182575f80fd5b5061018b61065b565b6040516101989190610c7c565b60405180910390f35b6101bb60048036038101906101b69190610b07565b610664565b005b3480156101c8575f80fd5b506101e360048036038101906101de9190610e01565b610868565b005b6101ed610a6d565b8060045f8281526020019081526020015f205f015f9054906101000a900473ffffffffffffffffffffffffffffffffffffffff1673ffffffffffffffffffffffffffffffffffffffff163373ffffffffffffffffffffffffffffffffffffffff161461028e576040517f08c379a000000000000000000000000000000000000000000000000000000000815260040161028590610eb7565b60405180910390fd5b5f60035f8481526020019081526020015f2090505f60045f8581526020019081526020015f2090508160030160149054906101000a900460ff1615610308576040517f08c379a00000000000000000000000000000000000000000000000000000000081526004016102ff90610f1f565b60405180910390fd5b5f6201518082600101544261031d9190610f6a565b6103279190610fca565b90505f6201518083600101544261033e9190610f6a565b6103489190610ffa565b111561035e5760018161035b919061102a565b90505b5f83600101548261036f919061105d565b90505f81856002015411156103915781856002015461038e9190610f6a565b90505b846003015f9054906101000a900473ffffffffffffffffffffffffffffffffffffffff1673ffffffffffffffffffffffffffffffffffffffff166108fc8390811502906040515f60405180830381858888f193505050501580156103f7573d5f803e3d5ffd5b505f81111561046757835f015f9054906101000a900473ffffffffffffffffffffffffffffffffffffffff1673ffffffffffffffffffffffffffffffffffffffff166108fc8290811502906040515f60405180830381858888f19350505050158015610465573d5f803e3d5ffd5b505b60018560030160146101000a81548160ff02191690831515021790555060045f8881526020019081526020015f205f8082015f6101000a81549073ffffffffffffffffffffffffffffffffffffffff0219169055600182015f90555050867fee4b5098d8c39dde213a36f1997bff3e0660690383e61faf875a9c3512b94286826040516104f49190610c7c565b60405180910390a250505050505061050a610aba565b50565b6003602052805f5260405f205f91509050805f01805461052c906110cb565b80601f0160208091040260200160405190810160405280929190818152602001828054610558906110cb565b80156105a35780601f1061057a576101008083540402835291602001916105a3565b820191905f5260205f20905b81548152906001019060200180831161058657829003601f168201915b505050505090806001015490806002015490806003015f9054906101000a900473ffffffffffffffffffffffffffffffffffffffff16908060030160149054906101000a900460ff16905085565b60025481565b60015f9054906101000a900473ffffffffffffffffffffffffffffffffffffffff1681565b6004602052805f5260405f205f91509050805f015f9054906101000a900473ffffffffffffffffffffffffffffffffffffffff16908060010154905082565b5f600254905090565b61066c610a6d565b5f60035f8381526020019081526020015f2090508060030160149054906101000a900460ff166106d1576040517f08c379a00000000000000000000000000000000000000000000000000000000081526004016106c890611145565b60405180910390fd5b5f816001015482600201546106e6919061102a565b90508034101561072b576040517f08c379a0000000000000000000000000000000000000000000000000000000008152600401610722906111d3565b60405180910390fd5b8047101561076e576040517f08c379a00000000000000000000000000000000000000000000000000000000081526004016107659061123b565b60405180910390fd5b5f8260030160146101000a81548160ff02191690831515021790555060405180604001604052803373ffffffffffffffffffffffffffffffffffffffff1681526020014281525060045f8581526020019081526020015f205f820151815f015f6101000a81548173ffffffffffffffffffffffffffffffffffffffff021916908373ffffffffffffffffffffffffffffffffffffffff160217905550602082015181600101559050503373ffffffffffffffffffffffffffffffffffffffff16837fc0661432c794dec039a29ae318625a6ae8be0372f5a5cee7dd0b50eef5f1f1af60405160405180910390a35050610865610aba565b50565b5f8351116108ab576040517f08c379a00000000000000000000000000000000000000000000000000000000081526004016108a2906112a3565b60405180910390fd5b5f82116108ed576040517f08c379a00000000000000000000000000000000000000000000000000000000081526004016108e49061130b565b60405180910390fd5b5f811161092f576040517f08c379a000000000000000000000000000000000000000000000000000000000815260040161092690611373565b60405180910390fd5b6040518060a001604052808481526020018381526020018281526020013373ffffffffffffffffffffffffffffffffffffffff1681526020016001151581525060035f60025481526020019081526020015f205f820151815f019081610995919061152e565b5060208201518160010155604082015181600201556060820151816003015f6101000a81548173ffffffffffffffffffffffffffffffffffffffff021916908373ffffffffffffffffffffffffffffffffffffffff16021790555060808201518160030160146101000a81548160ff0219169083151502179055509050506002547f407d439efefff58d118654bf6707a4ef5299950f2994f51aeb9698a8683b44df848484604051610a49939291906115fd565b60405180910390a260025f815480929190610a6390611639565b9190505550505050565b60025f5403610ab1576040517f08c379a0000000000000000000000000000000000000000000000000000000008152600401610aa8906116ca565b60405180910390fd5b60025f81905550565b60015f81905550565b5f604051905090565b5f80fd5b5f80fd5b5f819050919050565b610ae681610ad4565b8114610af0575f80fd5b50565b5f81359050610b0181610add565b92915050565b5f60208284031215610b1c57610b1b610acc565b5b5f610b2984828501610af3565b91505092915050565b5f81519050919050565b5f82825260208201905092915050565b5f5b83811015610b69578082015181840152602081019050610b4e565b5f8484015250505050565b5f601f19601f8301169050919050565b5f610b8e82610b32565b610b988185610b3c565b9350610ba8818560208601610b4c565b610bb181610b74565b840191505092915050565b610bc581610ad4565b82525050565b5f73ffffffffffffffffffffffffffffffffffffffff82169050919050565b5f610bf482610bcb565b9050919050565b610c0481610bea565b82525050565b5f8115159050919050565b610c1e81610c0a565b82525050565b5f60a0820190508181035f830152610c3c8188610b84565b9050610c4b6020830187610bbc565b610c586040830186610bbc565b610c656060830185610bfb565b610c726080830184610c15565b9695505050505050565b5f602082019050610c8f5f830184610bbc565b92915050565b5f602082019050610ca85f830184610bfb565b92915050565b5f604082019050610cc15f830185610bfb565b610cce6020830184610bbc565b9392505050565b5f80fd5b5f80fd5b7f4e487b71000000000000000000000000000000000000000000000000000000005f52604160045260245ffd5b610d1382610b74565b810181811067ffffffffffffffff82111715610d3257610d31610cdd565b5b80604052505050565b5f610d44610ac3565b9050610d508282610d0a565b919050565b5f67ffffffffffffffff821115610d6f57610d6e610cdd565b5b610d7882610b74565b9050602081019050919050565b828183375f83830152505050565b5f610da5610da084610d55565b610d3b565b905082815260208101848484011115610dc157610dc0610cd9565b5b610dcc848285610d85565b509392505050565b5f82601f830112610de857610de7610cd5565b5b8135610df8848260208601610d93565b91505092915050565b5f805f60608486031215610e1857610e17610acc565b5b5f84013567ffffffffffffffff811115610e3557610e34610ad0565b5b610e4186828701610dd4565b9350506020610e5286828701610af3565b9250506040610e6386828701610af3565b9150509250925092565b7f4e6f742072656e746572000000000000000000000000000000000000000000005f82015250565b5f610ea1600a83610b3c565b9150610eac82610e6d565b602082019050919050565b5f6020820190508181035f830152610ece81610e95565b9050919050565b7f426f6f6b206973206e6f742072656e74656400000000000000000000000000005f82015250565b5f610f09601283610b3c565b9150610f1482610ed5565b602082019050919050565b5f6020820190508181035f830152610f3681610efd565b9050919050565b7f4e487b71000000000000000000000000000000000000000000000000000000005f52601160045260245ffd5b5f610f7482610ad4565b9150610f7f83610ad4565b9250828203905081811115610f9757610f96610f3d565b5b92915050565b7f4e487b71000000000000000000000000000000000000000000000000000000005f52601260045260245ffd5b5f610fd482610ad4565b9150610fdf83610ad4565b925082610fef57610fee610f9d565b5b828204905092915050565b5f61100482610ad4565b915061100f83610ad4565b92508261101f5761101e610f9d565b5b828206905092915050565b5f61103482610ad4565b915061103f83610ad4565b925082820190508082111561105757611056610f3d565b5b92915050565b5f61106782610ad4565b915061107283610ad4565b925082820261108081610ad4565b9150828204841483151761109757611096610f3d565b5b5092915050565b7f4e487b71000000000000000000000000000000000000000000000000000000005f52602260045260245ffd5b5f60028204905060018216806110e257607f821691505b6020821081036110f5576110f461109e565b5b50919050565b7f426f6f6b206973206e6f7420617661696c61626c6500000000000000000000005f82015250565b5f61112f601583610b3c565b915061113a826110fb565b602082019050919050565b5f6020820190508181035f83015261115c81611123565b9050919050565b7f496e73756666696369656e742045544820666f722072656e74696e67207468655f8201527f20626f6f6b000000000000000000000000000000000000000000000000000000602082015250565b5f6111bd602583610b3c565b91506111c882611163565b604082019050919050565b5f6020820190508181035f8301526111ea816111b1565b9050919050565b7f436f6e74726163742062616c616e636520697320696e73756666696369656e745f82015250565b5f611225602083610b3c565b9150611230826111f1565b602082019050919050565b5f6020820190508181035f83015261125281611219565b9050919050565b7f5469746c652063616e6e6f7420626520656d70747900000000000000000000005f82015250565b5f61128d601583610b3c565b915061129882611259565b602082019050919050565b5f6020820190508181035f8301526112ba81611281565b9050919050565b7f5072696365206d7573742062652067726561746572207468616e2030000000005f82015250565b5f6112f5601c83610b3c565b9150611300826112c1565b602082019050919050565b5f6020820190508181035f830152611322816112e9565b9050919050565b7f4465706f736974206d7573742062652067726561746572207468616e203000005f82015250565b5f61135d601e83610b3c565b915061136882611329565b602082019050919050565b5f6020820190508181035f83015261138a81611351565b9050919050565b5f819050815f5260205f209050919050565b5f6020601f8301049050919050565b5f82821b905092915050565b5f600883026113ed7fffffffffffffffffffffffffffffffffffffffffffffffffffffffffffffffff826113b2565b6113f786836113b2565b95508019841693508086168417925050509392505050565b5f819050919050565b5f61143261142d61142884610ad4565b61140f565b610ad4565b9050919050565b5f819050919050565b61144b83611418565b61145f61145782611439565b8484546113be565b825550505050565b5f90565b611473611467565b61147e818484611442565b505050565b5b818110156114a1576114965f8261146b565b600181019050611484565b5050565b601f8211156114e6576114b781611391565b6114c0846113a3565b810160208510156114cf578190505b6114e36114db856113a3565b830182611483565b50505b505050565b5f82821c905092915050565b5f6115065f19846008026114eb565b1980831691505092915050565b5f61151e83836114f7565b9150826002028217905092915050565b61153782610b32565b67ffffffffffffffff8111156115505761154f610cdd565b5b61155a82546110cb565b6115658282856114a5565b5f60209050601f831160018114611596575f8415611584578287015190505b61158e8582611513565b8655506115f5565b601f1984166115a486611391565b5f5b828110156115cb578489015182556001820191506020850194506020810190506115a6565b868310156115e857848901516115e4601f8916826114f7565b8355505b6001600288020188555050505b505050505050565b5f6060820190508181035f8301526116158186610b84565b90506116246020830185610bbc565b6116316040830184610bbc565b949350505050565b5f61164382610ad4565b91507fffffffffffffffffffffffffffffffffffffffffffffffffffffffffffffffff820361167557611674610f3d565b5b600182019050919050565b7f5265656e7472616e637947756172643a207265656e7472616e742063616c6c005f82015250565b5f6116b4601f83610b3c565b91506116bf82611680565b602082019050919050565b5f6020820190508181035f8301526116e1816116a8565b905091905056fea26469706673582212200ce227166fe2e5680b240fe620fa4a4095035613982234d44271ebc6f427e6c264736f6c63430008140033",
  "immutableReferences": {},
  "source": "// SPDX-License-Identifier: MIT\r\npragma solidity ^0.8.20;\r\n\r\nimport \"@openzeppelin/contracts/security/ReentrancyGuard.sol\";\r\n\r\ncontract BookRental is ReentrancyGuard {\r\n    address public owner;\r\n    uint256 public itemCount;\r\n\r\n    constructor() {\r\n        owner = msg.sender;\r\n    }\r\n\r\n    struct Book {\r\n        string title;\r\n        uint256 dailyPrice;\r\n        uint256 deposit;\r\n        address owner;\r\n        bool isAvailable;\r\n    }\r\n\r\n    struct RentalInfo {\r\n        address renter;\r\n        uint256 rentedAt;\r\n    }\r\n\r\n    mapping(uint256 => Book) public books;\r\n    mapping(uint256 => RentalInfo) public rentals;\r\n\r\n    event BookListed(uint256 indexed itemId, string title, uint256 price, uint256 deposit);\r\n    event BookRented(uint256 indexed itemId, address indexed renter);\r\n    event BookReturned(uint256 indexed itemId, uint256 refund);\r\n\r\n    modifier onlyBookOwner(uint256 _itemId) {\r\n        require(msg.sender == books[_itemId].owner, \"Not book owner\");\r\n        _;\r\n    }\r\n\r\n    modifier onlyRenter(uint256 _itemId) {\r\n        require(msg.sender == rentals[_itemId].renter, \"Not renter\");\r\n        _;\r\n    }\r\n\r\n    function listItem(string memory _title, uint256 _dailyPrice, uint256 _deposit) public {\r\n    require(bytes(_title).length > 0, \"Title cannot be empty\");\r\n    require(_dailyPrice > 0, \"Price must be greater than 0\");\r\n    require(_deposit > 0, \"Deposit must be greater than 0\");\r\n\r\n    books[itemCount] = Book({\r\n        title: _title,\r\n        dailyPrice: _dailyPrice,\r\n        deposit: _deposit,\r\n        owner: msg.sender,\r\n        isAvailable: true\r\n    });\r\n\r\n    emit BookListed(itemCount, _title, _dailyPrice, _deposit);\r\n    itemCount++;\r\n}\r\n\r\n\r\n  function rentItem(uint256 _itemId) public payable nonReentrant {\r\n    Book storage book = books[_itemId];\r\n    require(book.isAvailable, \"Book is not available\");\r\n\r\n    uint256 totalCost = book.deposit + book.dailyPrice;\r\n    require(msg.value >= totalCost, \"Insufficient ETH for renting the book\");\r\n\r\n    // Check if contract has enough funds to process the transaction\r\n    require(address(this).balance >= totalCost, \"Contract balance is insufficient\");\r\n\r\n    book.isAvailable = false;\r\n    rentals[_itemId] = RentalInfo({\r\n        renter: msg.sender,\r\n        rentedAt: block.timestamp\r\n    });\r\n\r\n    emit BookRented(_itemId, msg.sender);\r\n}\r\n\r\n\r\n\r\n    function returnItem(uint256 _itemId) public nonReentrant onlyRenter(_itemId) {\r\n        Book storage book = books[_itemId];\r\n        RentalInfo storage rent = rentals[_itemId];\r\n\r\n        require(!book.isAvailable, \"Book is not rented\");\r\n\r\n        uint256 rentalDuration = (block.timestamp - rent.rentedAt) / 1 days;\r\n        if ((block.timestamp - rent.rentedAt) % 1 days > 0) {\r\n            rentalDuration += 1; // count partial days as full\r\n        }\r\n\r\n        uint256 rentalFee = rentalDuration * book.dailyPrice;\r\n        uint256 refund = 0;\r\n\r\n        if (book.deposit > rentalFee) {\r\n            refund = book.deposit - rentalFee;\r\n        }\r\n\r\n        // Transfer rental fee to book owner\r\n        payable(book.owner).transfer(rentalFee);\r\n\r\n        // Refund remaining deposit to renter\r\n        if (refund > 0) {\r\n            payable(rent.renter).transfer(refund);\r\n        }\r\n\r\n        book.isAvailable = true;\r\n        delete rentals[_itemId];\r\n\r\n        emit BookReturned(_itemId, refund);\r\n    }\r\n\r\n    // Add the missing getBookCount function\r\n    function getBookCount() public view returns (uint256) {\r\n        return itemCount;\r\n    }\r\n}\r\n",
  "sourcePath": "C:\\Users\\bhava\\book-rental\\contracts\\BookRental.sol",
  "compiler": {
    "name": "solc",
    "version": "0.8.20+commit.a1b79de6.Emscripten.clang"
  },
  "schemaVersion": "3.4.16",
  "updatedAt": "2025-04-15T13:30:22.103Z",
  "networkType": "ethereum",
  "devdoc": {
    "kind": "dev",
    "methods": {},
    "version": 1
  },
  "userdoc": {
    "kind": "user",
    "methods": {},
    "version": 1
  }
}